:100000000C94B5000C94D2000C94D2000C94D20045
:100010000C94D2000C94D2000C94D2000C94D20018
:100020000C94D2000C94D2000C94D2000C94D20008
:100030000C94D2000C94D2000C94D2000C94D200F8
:100040000C94D2000C94D2000C94D2000C94D200E8
:100050000C94D2000C94D2000C94D2000C94D200D8
:100060000C94D2000C94D2006E616E00696E660032
:1000700000407A10F35A00A0724E18090010A5D45F
:10008000E80000E87648170000E40B54020000CABC
:100090009A3B000000E1F505000080969800000002
:1000A00040420F000000A086010000001027000061
:1000B0000000E803000000006400000000000A00E7
:1000C000000000000100000000002C76D888DC67EA
:1000D0004F0823DFC1DFAE59E1B1B796E5E3E45342
:1000E000C63AE651997696E8E6C28426EB898C9B5F
:1000F00062ED407C6FFCEFBC9C9F40F2BAA56FA5FF
:10010000F490055A2AF75C936B6CF9676DC11BFC80
:10011000E0E40D47FEF520E6B500D0ED902E03009B
:10012000943577050080841E080000204E0A0000E8
:1001300000C80C333333330F986E12831141EF8DA7
:100140002114893BE65516CFFEE6DB18D1844B38E7
:100150001BF77C1D901DA4BBE424203284725E2218
:100160008100C9F124ECA1E53D2711241FBECFEF8A
:10017000D8E0DEBFCDBF11E0A0E0B1E0E0E5F5E101
:1001800002C005900D92AC3DB107D9F721E0ACED6E
:10019000B1E001C01D92AC3EB207E1F70E949704A6
:1001A0000C94A60A0C940000CF93C82F8EE40E94F2
:1001B000F6048091DC018C2B0E9425050E941D0510
:1001C000CF910895CF93C82F84600E94D40085E01A
:1001D0008A95F1F700008C2F8B7F0E94D40087EC6A
:1001E00090E00197F1F700C00000CF910895CF9300
:1001F000C82FCD7F8C2F0E94D4008C2F0E94E2004C
:10020000CF910895CF93DF93C62F982F907FD82F4B
:10021000D295D07F892F862B84600E94F7008D2F86
:100220008C2B84600E94F700DF91CF91089561E0EC
:100230000E94020108950E94170180E090E0089555
:1002400060E081E00E9402012FEF86E791E02150FB
:1002500080409040E1F700C000000895CF93DF9305
:10026000CDB7DEB728970FB6F894DEBF0FBECDBF6F
:1002700098E0E4E1F1E0DE01119601900D929A958B
:10028000E1F79091DD01691710F06FEF690FE62F2C
:10029000F0E0EE0FFF1F21E030E02C0F3D1FE20FDA
:1002A000F31F9081890F60E080680E940201289608
:1002B0000FB6F894DEBF0FBECDBFDF91CF9108958A
:1002C0008091DF018B7F8093DF0160E088600E9476
:1002D000020108958091DF01982F94609093DF01CF
:1002E00060E08C600E940201089580E091E09093AC
:1002F000E9018093E8018091DC0188608093DC0152
:1003000084E08093DD012FEF80E792E02150804070
:100310009040E1F700C000008EE40E94F60484E003
:100320000E9425058FE891E00197F1F700C00000D9
:1003300080E30E94F7008FE496E40197F1F700C094
:10034000000080E30E94F70087E592E00197F1F753
:1003500000C0000080E30E94F70087E592E001976B
:10036000F1F700C0000080E20E94F70087E592E00C
:100370000197F1F700C0000060E088E20E940201EE
:100380001092DF010E9460010E946A0182E0809366
:10039000E00160E086E00E9402018091DF0160E000
:1003A00088600E94020188E08093DE0160E088E1BD
:1003B0000E9402010E9420010895CF92DF92EF92E5
:1003C000FF920F931F93CF93DF93CDB7DEB72A979A
:1003D0000FB6F894DEBF0FBECDBFE12CF12C73C277
:1003E000E114F104C1F58091E2018823A1F10E949A
:1003F000200160E080E00E942E0100E010E023C0B8
:100400008CE191E09F938F930E94150AF801EE0F03
:10041000FF1F21E030E02C0F3D1FE20FF31F608132
:10042000C80103960E94980A3FEF85EA9EE031508A
:1004300080409040E1F700C000000E9420010F5F63
:100440001F4F0F900F9005301105D4F20E9420012C
:10045000EE24E394F12C60E080E00E942E01809174
:10046000E2018823F1F089E991E09F938F930E9444
:10047000150A0F900F9000E010E00FC0F801EE0F8A
:10048000FF1F21E030E02C0F3D1FE20FF31F8081A2
:1004900091810E942B0A0F5F1F4F0530110574F3E5
:1004A00008C089E291E09F938F930E94150A0F90F4
:1004B0000F9061E080E00E942E018091E10188238D
:1004C00079F08091E5011F928F9387E391E09F93EC
:1004D0008F930E94150A0F900F900F900F9008C0F5
:1004E00084E491E09F938F930E94150A0F900F90E0
:1004F00062E080E00E942E0184E591E09F938F935B
:100500000E94150A63E080E00E942E0189E591E0D7
:100510009F938F930E94150A63E087E00E942E014B
:1005200081E691E09F938F930E94150A63E08EE02D
:100530000E942E0189E691E09F938F930E94150AF5
:1005400086B10FB6F894DEBF0FBECDBF8E3309F073
:10055000BAC00E942001FFEF21EE34E0F1502040AC
:100560003040E1F700C0000099C060E080E00E94E8
:100570002E018EE691E09F938F930E94150A61E011
:1005800080E00E942E01809111018F9380911001D3
:100590008F938FE791E09F938F930E94150A63E0FA
:1005A00082E00E942E018BE290E00E942B0A63E021
:1005B00086E00E942E018DE290E00E942B0A63E00B
:1005C0008CE00E942E0185E891E09F938F930E941A
:1005D000150A63E080E10E942E018AE891E09F9372
:1005E0008F930E94150A86B10FB6F894DEBF0FBE36
:1005F000CDBF8E3391F4809110019091110101963D
:100600009093110180931001FFEF23EC39E0F1503A
:1006100020403040E1F700C0000086B18D33A1F4E6
:100620008091100190911101009771F001979093C2
:100630001101809310018FEF93ECE9E0815090401D
:10064000E040E1F700C0000086B18B3339F500E1EE
:1006500011E0F801608181E090E00E94980A0E9418
:10066000200160E080E00E942E018CE191E09F93E8
:100670008F930E94150AF80180818093E50181E043
:100680008093E101FFEF25EA3EE0F1502040304049
:10069000E1F700C000000F900F9004C086B18733CF
:1006A00009F063CF88E290E09093110180931001EC
:1006B0000E9420018FEF93ECE9E081509040E040F0
:1006C000E1F700C0000086B18B3309F0FCC00E9446
:1006D0002001FFEF21EE34E0F15020403040E1F7FF
:1006E00000C00000C12CD12CD6C060E080E00E9488
:1006F0002E0180E991E09F938F930E94150A61E09B
:1007000080E00E942E0186010F5F1F4F80910F0134
:100710008F9380910E018F931F930F938FE991E038
:100720009F938F930E94150A63E082E00E942E013E
:100730008BE290E00E942B0A63E086E00E942E018B
:100740008DE290E00E942B0A63E08CE00E942E0173
:1007500085E891E09F938F930E94150A63E080E102
:100760000E942E018BE891E09F938F930E94150ABF
:1007700086B10FB6F894DEBF0FBECDBF8E33E1F465
:1007800080910E0190910F018A35910539F481E431
:1007900090E090930F0180930E0105C00196909315
:1007A0000F0180930E01FFEF23EC39E0F150204060
:1007B0003040E1F700C0000086B18D33F1F4809144
:1007C0000E0190910F010097C1F08134910539F429
:1007D0008AE590E090930F0180930E0105C0019788
:1007E00090930F0180930E018FEF93ECE9E081501D
:1007F0009040E040E1F700C0000086B18B3309F083
:100800004AC0C114D10481F4F601EE0FFF1F21E0AC
:1008100030E02C0F3D1FE20FF31F80910E019091ED
:100820000F019183808310C080910E0190910F0180
:100830008096F601EE0FFF1F21E030E02C0F3D1FE8
:10084000E20FF31F9183808362E080E00E942E011B
:10085000CC0CDD1CE1E0F0E0EC0FFD1FEC0DFD1D0C
:1008600081818F9380818F938EEA91E09F938F9304
:100870000E94150A0F900F900F900F9005301105F0
:1008800071F03FEF84E39CE0315080409040E1F70D
:1008900000C00000680186B1873309F026CF81E0EF
:1008A0008093E20181E490E090930F0180930E0128
:1008B0000E942001EFEFF3EC29E0E150F0402040EE
:1008C000E1F700C0000086B1873309F089CD0E94AE
:1008D00020018091E101811116C062E00E942E0189
:1008E00081EB91E09F938F930E94150A3FEF83ED78
:1008F00090E3315080409040E1F700C000000E943A
:1009000020010F900F9061E080E090E00E94980A33
:100910002A960FB6F894DEBF0FBECDBFDF91CF9100
:100920001F910F91FF90EF90DF90CF900895CF939C
:10093000DF93CDB7DEB72A970FB6F894DEBF0FBEB0
:10094000CDBF8FEF8AB91BB880EF87B98FE388B925
:100950000E94F0040E9475010E94DD018091120145
:10096000909113010E94900A8093E50183E090E04A
:100970000E94900A8093E30160E080E00E942E01D3
:1009800085EC91E09F938F930E94150A0F900F9032
:1009900000E010E00FC0F801EE0FFF1F81E090E0D3
:1009A0008C0F9D1FE80FF91F808191810E942B0AF7
:1009B0000F5F1F4F0530110574F361E080E00E9466
:1009C0002E018091E5011F928F938CEC91E09F9313
:1009D0008F930E94150A0F900F900F900F90CCCF1D
:1009E0001092B90088E48093B800089594EA909337
:1009F000BC009091BC009923E4F79091B900987FD6
:100A0000983011F0903191F78093BB0094E8909367
:100A1000BC009091BC009923E4F79091B900987FB5
:100A2000903211F0983541F494E99093BC00909184
:100A3000BC0094FDFCCFDACF089584E98093BC001C
:100A40008091BC0084FDFCCF08958093BB0084E8B6
:100A50008093BC008091BC008823E4F78091B900AA
:100A6000887F883211F081E0089580E00895A0E148
:100A7000B0E0EDE3F5E00C94B4087C011B016A01E1
:100A8000FC0117821682838181FF44C39E012F5F80
:100A90003F4F3901F7019381F10193FD859193FF58
:100AA00081911F01882309F431C3853239F493FD04
:100AB000859193FF81911F01853239F4B70190E050
:100AC0000E94D90956016501E5CF10E0512C912C07
:100AD000FFE1F915D8F08B3279F038F4803279F0F3
:100AE0008332A1F4F92DF0612EC08D3261F0803394
:100AF00069F4292D21602DC0392D3260932E892D66
:100B00008460982E2AC0E92DE86015C097FC2DC09E
:100B100020ED280F2A3088F496FE06C03AE0139F95
:100B2000200D1124122F19C08AE0589E200D112487
:100B3000522EE92DE0629E2E10C08E3231F496FCCA
:100B4000E5C2F92DF0649F2E08C08C3621F4292DC2
:100B50002068922E02C0883641F4F10193FD859100
:100B600093FF81911F018111B3CF9BEB980F9330BD
:100B700020F4992D9061805E07C09BE9980F933017
:100B800008F066C1992D9F7E96FF16E09F73992EFF
:100B9000853619F49064992E08C0863621F4392FD1
:100BA0003068932E02C01111115097FE07C01C33FC
:100BB00050F444244394410E27E00BC0183038F021
:100BC00027E017E005C027E09CE3492E02C0212F53
:100BD000412C560184E0A80EB11CF60160817181A0
:100BE00082819381042DA3010E94EB086C01F9819D
:100BF000FC87F0FF02C0F3FF06C091FC06C092FE26
:100C000006C000E205C00DE203C00BE201C000E037
:100C10008C858C7019F001115AC29BC297FE10C0CE
:100C20004C0CFC85F4FF04C08A81813309F44A949A
:100C3000141474F528E0241578F588E0482E2CC0AB
:100C400096FC2AC0812F90E08C159D059CF03CEF0E
:100C5000C3163FEFD30674F0892D8068982E0AC022
:100C6000E2E0F0E0EC0FFD1FE10FF11D8081803329
:100C700019F411501111F4CF97FE0EC0442443947F
:100C8000410E812F90E0C816D9062CF41C1904C01F
:100C90004424439401C010E097FE06C01C141D04B8
:100CA00034F4C601019605C085E090E002C081E001
:100CB00090E001110196112331F0212F30E02F5FD8
:100CC0003F4F820F931F252D30E08217930714F4B6
:100CD000581A01C0512C892D897049F4552039F0DA
:100CE000B70180E290E00E94D9095A94F7CF00231F
:100CF00029F0B701802F90E00E94D90993FC09C028
:100D0000552039F0B70180E390E00E94D9095A9448
:100D1000F7CF97FE4CC04601D7FE02C0812C912C24
:100D2000C60188199909F301E80FF91FFE87ED87BD
:100D3000960124193109388B2F87012F10E0119566
:100D4000019511093FEF8316930629F4B7018EE24E
:100D500090E00E94D909C814D9044CF08F85988975
:100D60008815990524F4ED85FE85818101C080E315
:100D7000F1E08F1A91082D853E852F5F3F4F3E870A
:100D80002D87801691062CF0B70190E00E94D909BA
:100D9000D9CFC814D90441F49A81963320F49533FD
:100DA00019F43C8534FF81E3B70190E04EC08A819D
:100DB000813319F09C859F7E9C87B70190E00E944B
:100DC000D909111105C094FC18C085E690E017C040
:100DD000B7018EE290E00E94D9091E5F82E001E037
:100DE000080FF301E80FF11D8081B70190E00E9428
:100DF000D909802F0113F3CFE6CF85E490E0B70146
:100E00000E94D909D7FC06C0C114D10441F4EC8575
:100E1000E4FF05C0D194C194D1088DE201C08BE2FA
:100E2000B70190E00E94D90980E32AE0C216D104FC
:100E30002CF08F5FFAE0CF1AD108F7CFB70190E01E
:100E40000E94D909B701C601C0960E94D90954C1B0
:100E5000833631F0833779F0833509F056C020C0EE
:100E6000560132E0A30EB11CF6018081898301E0B6
:100E700010E0630112C05601F2E0AF0EB11CF601A2
:100E8000C080D18096FE03C0612F70E002C06FEF7A
:100E90007FEFC6010E94CE098C01F92DFF7714C0A7
:100EA000560122E0A20EB11CF601C080D18096FE50
:100EB00003C0612F70E002C06FEF7FEFC6010E9498
:100EC000C3098C01F92DF0689F2EF3FD1AC0852D02
:100ED00090E008171907A8F4B70180E290E00E949B
:100EE000D9095A94F4CFF60197FC859197FE819128
:100EF0006F01B70190E00E94D90951105A94015036
:100F000011090115110579F7F7C0843611F08936FA
:100F100061F5560197FE09C024E0A20EB11CF6014E
:100F200060817181828193810AC0F2E0AF0EB11CB1
:100F3000F60160817181072E000C880B990BF92D49
:100F4000FF769F2E97FF09C09095809570956195CB
:100F50007F4F8F4F9F4FF0689F2E2AE030E0A30114
:100F60000E94320AC82EC6183FC0092D853721F4C9
:100F70000F7E2AE030E01DC0097F8F3691F018F413
:100F8000883559F0C3C0803719F0883711F0BEC0DA
:100F9000006104FF09C0046007C094FE08C0066039
:100FA00006C028E030E005C020E130E002C020E1CA
:100FB00032E0560107FF09C084E0A80EB11CF6011B
:100FC000608171818281938108C0F2E0AF0EB11C13
:100FD000F6016081718180E090E0A3010E94320AF5
:100FE000C82EC6180F77902E96FE0BC0092D0E7FC7
:100FF000C11650F494FE0AC092FC08C0092D0E7E62
:1010000005C0DC2C092D03C0DC2C01C0D12E04FF4F
:101010000DC0FE01EC0DF11D8081803311F4097EBD
:1010200009C002FF06C0D394D39404C0802F8678F1
:1010300009F0D39403FD11C000FF06C01C2DD51488
:1010400080F4150D1D190DC0D51458F4B70180E2B8
:1010500090E00E94D909D394F7CFD51410F45D180D
:1010600001C0512C04FF10C0B70180E390E00E9442
:10107000D90902FF17C001FD03C088E790E002C054
:1010800088E590E0B7010CC0802F867859F001FF09
:1010900002C08BE201C080E207FD8DE2B70190E063
:1010A0000E94D909C11638F4B70180E390E00E948C
:1010B000D9091150F7CFCA94F301EC0DF11D8081CD
:1010C000B70190E00E94D909C110F5CF15C0F4E036
:1010D000F51560F584E0581A93FE1FC0011127C072
:1010E0002C8523FF2AC008E610E0392D3071932E9D
:1010F000F8018491811124C0552009F4E4CCB70192
:1011000080E290E00E94D9095A94F6CFF7018681D7
:10111000978126C08FEF9FEF23C0B70180E290E058
:101120000E94D9095A945110F8CFD8CF512CB70149
:10113000802F90E00E94D909D3CF0CE610E0D5CFE4
:1011400091108052B70190E00E94D9090F5F1F4FA4
:10115000CFCF23E0251510F483E0BDCF512CC0CFB5
:101160006096E2E10C94D0082F923F924F925F92EA
:101170006F927F928F929F92AF92BF92CF92DF92A7
:10118000EF92FF920F931F93CF93DF93CDB7DEB70C
:10119000CA1BDB0B0FB6F894DEBF0FBECDBF0994A0
:1011A0002A88398848885F846E847D848C849B84F7
:1011B000AA84B984C884DF80EE80FD800C811B8105
:1011C000AA81B981CE0FD11D0FB6F894DEBF0FBE34
:1011D000CDBFED010895283008F027E03327DA016C
:1011E000990F311D87FD916000966105710539F4F5
:1011F00032602E5F3D9330E32A95E1F708959F3FDB
:1012000030F080387105610509F03C5F3C5F3D932B
:10121000913008F08068911DDF93CF931F930F9357
:10122000FF92EF92192F987F9695E92F96959695B4
:10123000E90FFF27E653FF4F99273327EE24FF24BA
:10124000A701E70105900894079428F4360FE71EDC
:10125000F81E491F511D660F771F881F991F06949E
:10126000A1F70590079428F4E70EF81E491F561FB2
:10127000C11D770F881F991F661F0694A1F705905F
:10128000079428F4F80E491F561FC71FD11D880F59
:10129000991F661F771F0694A1F70590079420F405
:1012A000490F561FC71FD81F990F661F771F881F2A
:1012B0000694A9F784911095177041F0D695C795BB
:1012C00057954795F794E7941A95C1F7E0E7F0E052
:1012D00068941590159135916591959105907FE2EF
:1012E0007395E118F10A430B560BC90BD009C0F7EF
:1012F000E10CF11E431F561FC91FD01D7EF4703331
:1013000011F48A95E6CFE894015030F0080F0AF402
:101310000027021708F4202F2395022F7A3328F094
:1013200079E37D932A95E9F710C07D932A9589F694
:10133000069497956795379517951794E118F10AD4
:10134000430B560BC90BD00998F023957E917395EA
:101350007A3308F070E37C932013B8F77E917061C4
:101360007D9330F0839571E37D9370E32A95E1F7E7
:101370001124EF90FF900F911F91CF91DF9199274A
:1013800087FD90950895FC01059061507040011013
:10139000D8F7809590958E0F9F1F0895FC0161509E
:1013A000704001900110D8F7809590958E0F9F1F87
:1013B00008950F931F93CF93DF93FB01238121FDAA
:1013C00003C08FEF9FEF2CC022FF16C046815781CC
:1013D000248135814217530744F4A081B1819D01D6
:1013E0002F5F3F4F318320838C93268137812F5F7E
:1013F0003F4F3783268314C08B01EC01FB0100842F
:10140000F185E02D0995892BE1F6D80116968D918D
:101410009C911797019617969C938E931697CE01E1
:10142000DF91CF911F910F910895A0E0B0E0EBE123
:10143000FAE00C94C408AE014B5F5F4FFA01619172
:101440007191AF018091E8019091E9010E94370507
:10145000E2E00C94E0086091E8017091E9010E94DB
:10146000D9090895FA01AA27283051F1203181F1D4
:10147000E8946F936E7F6E5F7F4F8F4F9F4FAF4F9C
:10148000B1E03ED0B4E03CD0670F781F891F9A1FAF
:10149000A11D680F791F8A1F911DA11D6A0F711D63
:1014A000811D911DA11D20D009F468943F912AE06F
:1014B000269F11243019305D3193DEF6CF01089557
:1014C000462F4770405D4193B3E00FD0C9F7F6CF88
:1014D000462F4F70405D4A3318F0495D31FD405250
:1014E000419302D0A9F7EACFB4E0A69597958795E6
:1014F00077956795BA95C9F70097610571050895C5
:101500009B01AC010A2E0694579547953795279570
:10151000BA95C9F7620F731F841F951FA01D089508
:10152000F999FECF92BD81BDF89A992780B50895AB
:10153000262FF999FECF1FBA92BD81BD20BD0FB6EF
:10154000F894FA9AF99A0FBE01960895F894FFCF8D
:1015500000000002000000001B010000000041002C
:10156000280001000000400014005400454550527E
:101570004F4D205752495445004E616D653A204EFB
:101580004F5420534554005765696768743A2025C5
:10159000646B67005765696768743A204E6F742002
:1015A000536574005345543A005765696768747C05
:1015B000004865696768747C004E616D650053651D
:1015C0007420596F7572205765696768743A0020F6
:1015D00025303264005345547C007C4241434B002B
:1015E00053657420596F7572204E616D653A002500
:1015F000642E204C65747465723A2025630025645E
:101600000053454C45435420594F555220574549A6
:10161000474854210048656C6C6F2000596F752055
:0C16200077656967683A2025646B6700F5
:00000001FF
